:020000040800F2
:1000000000000120C5020008CB020008CF02000852
:1000100041030008450300088D03000800000000AC
:10002000000000000000000000000000D5030008F0
:10003000D903000800000000DD03000829130008B0
:10004000F1030008F1030008F1030008F1030008C0
:10005000F1030008F1030008F1030008F1030008B0
:10006000F1030008F1030008F1030008F1030008A0
:10007000F1030008F1030008F1030008F103000890
:10008000F1030008F1030008F1030008000000007C
:10009000000000000000000000000000F103000864
:1000A000F1030008F1030008F1030008F103000860
:1000B000F1030008F1030008F1030008F103000850
:1000C000F1030008F1030008F1030008F103000840
:1000D000F1030008F1030008F1030008000000002C
:1000E000F1030008F1030008F1030008000000001C
:1000F000000000000000000000000000F103000804
:1001000000000000F1030008F1030008F1030008FB
:1001100000000000000000000000000000000000DF
:10012000F1030008F1030008F1030008F1030008DF
:10013000F1030008000000000000000000000000C3
:10014000000000000000000000000000F1030008B3
:10015000F1030008F1030008F1030008F1030008AF
:10016000F1030008F1030008000000000000000097
:10017000000000000000000000000000000000007F
:1001800000000000F1030008000000000000000073
:10019000F103000800B583B000F046FE384B394A41
:1001A0001360394A1360394900E02146384B9942BF
:1001B0000BD20A684B6801F10C0488689842F4D9A4
:1001C0001168196004330432F8E72E4B1A68314B7A
:1001D0009A4200D0FEE72C4B1A682F4B9A42F9D175
:1001E000274B2E4A13602E4A13602E4B05E0002049
:1001F000106004329342FAD80B462B4A934204D241
:10020000194651F8082B5B68F4E7244B1B6813B9B7
:10021000234B1B6803B1FEE701F0ECF8694601A827
:1002200000F094FD214C224BE41AA4100025AC42AE
:1002300014DC204C204BE41AA4100025AC4213DC43
:100240000099019801F0DEF805461C4C1C4BE41A9D
:10025000A410002C0EDC284600F04AFD144B53F885
:10026000253098470135E2E7134B53F8253098477E
:100270000135E3E7013C124B53F824309847E8E797
:10028000BABADECA0000002074000020F40300089F
:100290000C04000878563412325476987800002006
:1002A0001C0100200C0400081C0400081C040008A9
:1002B0001C0400081C0400081C0400081C0400089E
:1002C0001C04000808B5FFF765FF00BEFEE71EF03E
:1002D000040F0CBFEFF30880EFF309807146414A29
:1002E00010472DE9F04182B004468846124B5E6B00
:1002F0009F6B9D6A1B6B13F0020F03D00E4BDB6AE2
:10030000002B0CDB0D4800F033FDCDF800803B46A0
:1003100032462946204600F093FD00BEFEE74BF62C
:10032000AB6100F007FE0028ECD0034B4FF0004219
:10033000DA6202B0BDE8F08100ED00E0881F00083D
:1003400000BEFEE71EF0040F0CBFEFF30880EFF3D2
:1003500009807146244A10472DE9F04182B00446D5
:100360008846084B5E6B9F6B9D6A074800F000FD56
:10037000CDF800803B4632462946204600F060FD1D
:1003800000BEFEE700ED00E0981F00081EF0040F1D
:100390000CBFEFF30880EFF309807146134A104752
:1003A0002DE9F04182B004468846084B5E6B9F6B96
:1003B0009D6A074800F0DCFCCDF800803B463246E1
:1003C0002946204600F03CFD00BEFEE700ED00E0BF
:1003D000A41F000800BEFEE700BEFEE700BEFEE769
:1003E00070470000E302000859030008A103000859
:0403F00000BEFEE766
:1003F400287B00080000002078000020287B0008EB
:1004040000000010000000107800002020010020EF
:080414000000001000000010C0
:1004200010B50446074B1868074BA3FB0030800942
:1004300000F090F8002221464FF0FF3000F044F821
:10044000002010BD0C000020D34D621008B50B4BEE
:100450001A6842F400721A601A6842F480621A60E4
:100460001A6842F480721A60032000F00FF80F201F
:10047000FFF7D6FF01F022F8002008BD003C024043
:10048000014B1868704700BF1401002010B50446E6
:10049000C31E042B0FD80A4AD36823F4E0631B045D
:1004A0001B0C240204F4E064234343F0BF6343F4D1
:1004B0000033D36010BDA421024800F04FFCEAE7EE
:1004C00000ED00E0B81D000870B505460C46164664
:1004D0000F2A25D80F2C28D81B4BDB68C3F3022327
:1004E000C3F10702042A28BF0422191D062921D9B5
:1004F000033B4FF0FF3101FA02F224EA02049C4070
:1005000001FA03F326EA03063443002D14DB240129
:10051000E4B205F1604505F5614585F8004370BD1D
:10052000BC210A4800F01AFCD4E7BD21074800F0BE
:1005300015FCD1E70023DCE705F00F052401E4B248
:10054000034B5C55EBE700BF00ED00E0B81D000871
:1005500014ED00E00138B0F1807F0AD2064B5860FC
:10056000064AF02182F823100020986007221A60C2
:1005700070470120704700BF10E000E000ED00E090
:1005800010B50446042800D038B9042C0BD0094A11
:10059000136823F00403136010BD40F2B311064842
:1005A00000F0DCFBF1E7034A136843F00403136037
:1005B000F2E700BF10E000E0B81D000830B583B0DE
:1005C000044603680F2B29D8236813F0010F3DD090
:1005D0006368012B01D9052B25D1A34B9B6803F040
:1005E0000C03042B29D0A04B9B6803F00C03082BB1
:1005F0001ED022799D4B1A706368002B50D0FFF7F4
:100600003FFF0546984B1B6813F4003F1ED1FFF7D0
:1006100037FF401B6428F5D90320E3E1F521944816
:1006200000F09CFBD0E7FA21914800F097FBD4E75B
:100630008D4B5B6813F4800FDBD08B4B1B6813F47E
:10064000003F03D06368002B00F0C981236813F0DA
:10065000020F5DD0E368012B31D823691F2B34D8FA
:10066000814B9B6813F00C0F3AD07F4B9B6803F0D3
:100670000C03082B2FD0E368002B74D07D4B012294
:100680001A60FFF7FDFE0546774B1B6813F0020F5B
:100690005AD1FFF7F5FE401B0228F5D90320A1E14E
:1006A000FFF7EEFE0546704B1B6813F4003FCDD0FC
:1006B000FFF7E6FE401B6428F5D9032092E14FF4D2
:1006C00096716B4800F04AFBC7E740F22D1168486D
:1006D00000F044FBC4E7644B5B6813F4800FCAD19D
:1006E000614B1B6813F0020F04D0E368012B01D0AB
:1006F000012077E15C48036823F0F8032169F822C0
:1007000092FAA2F2B2FA82F201FA02F21343036001
:10071000236813F0080F50D06369012B35D8636943
:10072000002B38D0544B01221A60FFF7A9FE054672
:100730004D4B5B6F13F0020F3FD1FFF7A1FE401B43
:100740000228F5D903204DE14748036823F0F80358
:100750002169F82292FAA2F2B2FA82F201FA02F2C6
:1007600013430360D4E7434B00221A60FFF788FE6F
:1007700005463D4B1B6813F0020FC9D0FFF780FE02
:10078000401B0228F5D903202CE140F26D113848B6
:1007900000F0E4FAC3E7384B00221A60FFF770FE5E
:1007A0000546314B5B6F13F0020F06D0FFF768FE72
:1007B000401B0228F5D9032014E1236813F0040F2D
:1007C00060D0A368012B01D9052B1FD10023019311
:1007D000254B1A6C42F080521A641B6C03F0805354
:1007E0000193019B254A136843F480731360FFF75C
:1007F00047FE0546214B1B6813F4807F0CD1FFF7A1
:100800003FFE401B0228F5D90320EBE040F2971190
:10081000174800F0A3FAD9E7227A194B1A70A36897
:1008200083B1FFF72DFE05460F4B1B6F13F0020F30
:1008300028D1FFF725FE401B41F288339842F3D9B7
:100840000320CFE0FFF71CFE0546074B1B6F13F09C
:10085000020F17D0FFF714FE401B41F28833984275
:10086000F3D90320BEE000BF003802400238024046
:10087000FC1D000800004742800E47420070004007
:1008800070380240A369022B39D8A369002B00F00D
:10089000A880564A926802F00C02082A00F0A48050
:1008A000022B40F08880E36913B1B3F5800F2CD19F
:1008B000236A3F2B2FD8636A323BB3F5BF7F30D812
:1008C000A36A022B05D0042B03D0062B01D0082BE2
:1008D0002DD1E36A043B0B2B2FD8454B00221A6025
:1008E000FFF7CEFD0546414B1B6813F0007F2AD071
:1008F000FFF7C6FD401B0228F5D9032072E04FF434
:10090000E6713C4800F02AFABFE740F2D5113948B9
:1009100000F024FACCE74FF4EB71364800F01EFAF1
:10092000C9E740F2D711334800F018FAC8E74FF48E
:10093000EC71304800F012FACBE740F2D9112D48A3
:1009400000F00CFAC9E7E369226A1343616A47F6CB
:10095000C07292FAA2F2B2FA82F201FA02F21343E0
:10096000A26A5208013A4FF4403191FAA1F1B1FA6A
:1009700081F18A401343E16A4FF0706292FAA2F269
:10098000B2FA82F201FA02F21343184A5360184B8A
:1009900001221A60FFF774FD0446144B1B6813F024
:1009A000007F06D1FFF76CFD001B0228F5D903205C
:1009B00018E0002016E00E4B00221A60FFF760FDE1
:1009C00004460A4B1B6813F0007F06D0FFF758FD62
:1009D000001B0228F5D9032004E0002002E00120DA
:1009E00000E0002003B030BD0120FBE700380240EA
:1009F00060004742FC1D0008214B9B6803F00C037C
:100A0000042B3AD0082B01D01E4870471C4B586865
:100A100000F03F005B6813F4800F1ED01A4AB2FB4F
:100A2000F0F2174B586847F6C073184093FAA3F3D7
:100A3000B3FA83F3D84000FB02F0114B5B6803F478
:100A400040334FF4403292FAA2F2B2FA82F2D3402B
:100A500001335B00B0FBF3F070470A4AB2FBF0F2DF
:100A6000074B586847F6C073184093FAA3F3B3FADC
:100A700083F3D84000FB02F0DFE70348704700BF74
:100A8000003802400024F40040787D0170B504462F
:100A90000D460368013B0E2B11D8072D15D88C4B42
:100AA0001B6803F00F03AB4215D2EBB2884A1370F8
:100AB000136803F00F03AB420DD0012070BD40F26C
:100AC0003721844800F04AF9E7E74FF40E71814876
:100AD00000F044F9E3E7236813F0020F18D0A3688D
:100AE0007BB1802B0DD0902B0BD0A02B09D0B02B3D
:100AF00007D0C02B05D0D02B03D0E02B01D0F02B9A
:100B000037D1754A936823F0F003A1680B439360D3
:100B1000236813F0010F73D06368032B2FD8636829
:100B2000012B32D09A1E012A36D96B4A126812F074
:100B3000020F00F0CA8068498A6822F0030213435A
:100B40008B60FFF79DFC06466368012B2BD0022BC0
:100B500038D0032B45D0604B9B6813F00C0F4FD05F
:100B6000FFF78EFC801B41F288339842F3D90320B3
:100B7000A4E740F24F21574800F0F0F8C1E740F2F7
:100B80005621544800F0EAF8C9E7534A126812F4B3
:100B9000003FD0D1012091E74F4A126812F0007F48
:100BA000C9D101208AE74C4B9B6803F00C03042B4E
:100BB00026D0FFF765FC801B41F288339842F2D9BA
:100BC00003207BE7444B9B6803F00C03082B17D0F2
:100BD000FFF756FC801B41F288339842F2D903207C
:100BE0006CE73D4B9B6803F00C030C2B08D0FFF720
:100BF00047FC801B41F288339842F2D903205DE71D
:100C0000334B1B6803F00F03AB4209D9EAB2304BF8
:100C10001A701B6803F00F03AB4201D001204DE7AF
:100C2000236813F0040F14D0E3685BB1B3F5805F61
:100C300008D0B3F5A05F05D0B3F5C05F02D0B3F51F
:100C4000E05F36D1244A936823F4E053E1680B4314
:100C50009360236813F0080F15D023695BB1B3F5D7
:100C6000805F08D0B3F5A05F05D0B3F5C05F02D0B8
:100C7000B3F5E05F23D1184A936823F460432169F8
:100C800043EAC1039360FFF7B7FE134B9B6803F081
:100C9000F003F02292FAA2F2B2FA82F2D3400F4AA3
:100CA000D35CD8400E4B18600F20FFF7B9FB002033
:100CB00004E74FF42D71074800F050F8C2E740F206
:100CC000BB21044800F04AF8D5E70120F6E600BF52
:100CD000003C0240FC1D000800380240EC1D0008EA
:100CE0000C000020014B1868704700BF0C0000206A
:100CF000FEE7000008B5034800F052F80120FFF7B6
:100D0000F7FF00BF2C1E000808B503460C4A126806
:100D10005AB10B4A1068033323F003030344094A12
:100D2000934206D8064A136008BD054A0649116079
:100D3000EFE700F0C5FB0C2303604FF0FF30F3E753
:100D40007C00002000FC0020200100200123036023
:100D5000014B0B60704700BF0400002008B50A4635
:100D60000146024800F004F8FFF7C4FF401E0008E7
:100D70000FB400B583B004AB53F8042B019380216A
:100D8000064800F0D7FB002803DD0146034800F0C9
:100D900047F803B05DF804EB04B07047840000200E
:100DA00010B5044600F092FB0146204600F038F8EA
:100DB0000121024800F034F810BD00BF041F0008F4
:100DC0002DE9F04385B004460F4643560BB10E465D
:100DD0001EE0042528462146ABBE0446384605B031
:100DE000BDE8F08314F9011B04AA1A4402F8101C90
:100DF0000133AB42F6D304AA1344002203F8102CAB
:100E00004FF00408E94640464946ABBE8046761B93
:100E1000002EE3D03546102E28BF10250023E8E72A
:100E200008B5FFF7CDFF08BD08B500F093F8024AFA
:100E3000024B9A6008BD00BF0000000800ED00E012
:100E4000F8B504460D4617461E462748FFF790FFA3
:100E500021682648FFF78CFF61682548FFF788FF67
:100E6000A1682448FFF784FFE1682348FFF780FF6B
:100E700021692248FFF77CFF61692148FFF778FF6D
:100E8000A1692048FFF774FFE1691F48FFF770FF71
:100E90001E48FFF76DFF29461D48FFF769FF1D4CEF
:100EA000E16A1D48FFF764FF216B1C48FFF760FFF4
:100EB000E16B1B48FFF75CFF15F0800F0AD115F4BA
:100EC000004F0CD11748FFF753FF06991648FFF75C
:100ED0004FFFF8BD39461548FFF74AFFEFE73146A7
:100EE0001348FFF745FFEDE76C1E00087C1E000865
:100EF0008C1E00089C1E0008AC1E0008BC1E0008CA
:100F0000CC1E0008DC1E0008EC1E0008FC1E0008B9
:100F1000081F000800ED00E0181F0008281F000847
:100F2000381F0008681F0008701F0008481F0008CD
:100F3000581F000883691A888A4201D00020704730
:100F40000268033A012A03D8023383610120704703
:100F5000002070470C4B1A6842F001021A60002111
:100F600099601A6822F0847222F480321A60074A6B
:100F70005A601A6822F480221A60D960044B4FF03C
:100F800000629A60704700BF0038024010300024B1
:100F900000ED00E0224B9B6803F00C03042B14D0FF
:100FA000082B16D01BB11F4B1F4A1A6002E01D4BC5
:100FB0001D4A1A601A4B9B68C3F303131B4AD15C8A
:100FC000184A1368CB4013607047164B184A1A60D2
:100FD000F0E7134B5A685B6803F03F0312F4800F8D
:100FE00013D0134AB2FBF3F20D4B5B68C3F38813C3
:100FF00003FB02F30A4A5268C2F301420132520073
:10100000B3FBF2F3074A1360D4E7074AB2FBF3F2EB
:10101000034B5B68C3F3881303FB02F3EAE700BFEB
:10102000003802400C0000200024F400B41F000827
:1010300040787D01A0F16403DBB2022B37D80F2981
:1010400035D8032A33D810B4642813D0652820D0AB
:1010500066281CD10C291AD9154804684B000321B5
:10106000994024EA01010160046802FA03F1214376
:1010700001600CE00F4B1868490003248C4020EA03
:1010800004001860186802FA01F10143196010BCED
:101090007047094B1868490003248C4020EA04007B
:1010A0001860186802FA01F101431960EFE7704710
:1010B000000802400000024000040240A0F1640366
:1010C000DBB2022B03D80F2901D8012A00D97047BF
:1010D00010B4642811D065281CD0662818D10C29BA
:1010E00016D9124B186801248C4020EA04001860BD
:1010F00018688A4002431A600AE00D4B1868012400
:101100008C4020EA0400186018688A4002431A6084
:1011100010BC7047074B186801248C4020EA04007B
:10112000186018688A4002431A60F1E70408024018
:101130000400024004040240A0F16403DBB2022B6D
:1011400037D80F2935D8032A33D810B4642813D0E0
:10115000652820D066281CD10C291AD915480468A6
:101160004B000321994024EA01010160046802FA5E
:1011700003F1214301600CE00F4B18684900032480
:101180008C4020EA04001860186802FA01F101435B
:10119000196010BC7047094B1868490003248C4043
:1011A00020EA04001860186802FA01F1014319608E
:1011B000EFE77047080802400800024008040240B8
:1011C000A0F16403DBB2022B03D80F2901D8012A56
:1011D00000D9704764280CD0652818D06628F8D14B
:1011E0000C29F6D90AB3012303FA01F1124B196055
:1011F000EFE732B91031012303FA01F10F4B196007
:101200007047012303FA01F10C4B1960704732B9A2
:101210001031012303FA01F1094B196070470123D2
:1012200003FA01F1064B196070471031012303FAEC
:1012300001F1014B19607047180802401800024084
:1012400018040240164B1A6842F001021A601A682C
:1012500022F480321A601A6822F080721A60104BF1
:101260001B6813F0020FFAD00E4B1A6822F003022B
:101270001A601A681A601A6822F0F0021A601A6876
:1012800042F080021A601A6822F4E0521A601A686A
:101290001A601A6822F460421A601A681A6070476D
:1012A000003802400838024001280BD010B1022853
:1012B00010D070470B480368012202FA01F119436C
:1012C0000160704708480368012202FA01F11943DE
:1012D0000160704705480368012202FA01F11943D1
:1012E00001607047303802404038024044380240C4
:1012F000064B1A6822F004021A601A6822F00202F1
:101300001A601A6842F001021A60704710E000E0AB
:10131000044B58609860034B1B6813F4803FFAD06D
:10132000704700BF10E000E008B5094B1B783BB9DF
:10133000084B00225A609A601A6822F001021A6073
:10134000054B1B6803B19847024B1B6808BD00BFE3
:101350000801002010E000E00401002070B594B006
:1013600000240194204B1A6C42F080521A641B6CCA
:1013700003F080530193019B02941C4B1A6842F4C2
:1013800040421A601B6803F440430293029B01230E
:10139000089309934FF480030F93192310934FF48C
:1013A000A8731193042612960723139302250E9512
:1013B00008A8FFF703F90F230393049505944FF44E
:1013C000805306930794294603A8FFF75FFBFFF7B6
:1013D00089FC074BA3FB00308009FFF7BBF83046C0
:1013E000FFF7CEF814B070BD003802400070004026
:1013F000D34D621008B5FFF729F8FFF7AFFFFFF7ED
:10140000C9FD08BD38B5FFF71DFFFFF771FF0021CB
:101410000846FFF749FF0024072C4AD8012221463D
:101420006420FFF707FE002221466420FFF746FEF6
:10143000002221466420FFF77FFE0134E4B2EBE78F
:101440001D4B5C5D04F0010200216420FFF7B8FE33
:10145000C4F3400201216420FFF7B2FEC4F380020E
:1014600002216420FFF7ACFEC4F3C0020321642014
:10147000FFF7A6FEC4F3001204216420FFF7A0FECC
:10148000C4F3401205216420FFF79AFEC4F38012D2
:1014900006216420FFF794FEE20907216420FFF78C
:1014A0008FFE6120FFF734FF013545F62F339D4253
:1014B000C6D90025F9E700BFC41F00087047000027
:1014C000014B1868704700BF10000020034613F856
:1014D000012B002AFBD1181A0138704730B5141EB1
:1014E00005469BB0184605DA8B232B604FF0FF3082
:1014F0001BB030BD4FF40273ADF80C3014BF04F1D3
:10150000FF332346029305934FF6FF730091049136
:10151000ADF80E3002461E9B6946284600F072F870
:10152000431CBCBF8B232B60002CE1D0009B00220E
:101530001A70DDE707B5009313460A4601460348D3
:101540000068FFF7CBFF03B05DF804FB100000203C
:101550002DE9F0478E689E4282460C469046994699
:1015600037D88A8912F4906F31D0256809696F1ACB
:101570006569022305EB450595FBF3F509F10103C8
:101580003B449D4238BF1D46530530D5294600F0E7
:1015900079FB064650B90C23CAF80030A38943F002
:1015A0004003A3814FF0FF30BDE8F0873A46216940
:1015B00000F0F6FAA38923F4906343F08003A3813B
:1015C000266165613E44ED1B2660A5604E464E4592
:1015D00000D94E4632464146206800F0ECFAA36836
:1015E0009B1BA36023681E4426600020DCE72A467C
:1015F00000F0A2FB06460028E2D12169504600F027
:10160000F3FAC8E72DE9F04F9DB0804603938B892C
:101610001D060C4616460FD50B696BB9402100F02C
:1016200031FB2060206128B90C23C8F800304FF04E
:10163000FF30C7E0402363610023099320238DF826
:10164000293030238DF82A304FF0010B37463D46C4
:1016500015F8013B0BB1252B3ED1B7EB060A0BD099
:101660005346324621464046FFF772FF013000F0F4
:10167000A480099B534409933B78002B00F09D8084
:1016800000234FF0FF32CDE90523049307938DF833
:1016900053301A932F46052217F8011B4F4800F0CC
:1016A0002FFA049BD0B9D90644BF20228DF85320CD
:1016B0001A0744BF2B228DF853202A782A2A15D0E6
:1016C000079A2F4600200A25394611F8013B303B86
:1016D000092B4DD9B8B10FE02F46B8E73F4A801A21
:1016E0000BFA00F0184304903D46D3E7039A111D0E
:1016F00012680391002A01DB079204E0524243F092
:101700000203079204933B782E2B0CD17B782A2B73
:1017100033D1039B1A1D1B680392002BB8BF4FF0F7
:10172000FF33023705932E4D39780322284600F007
:10173000E7F938B14023401B03FA00F0049B034350
:1017400001370493397827488DF8281006227E1C2B
:1017500000F0D6F9002838D0234B13BB039B073386
:1017600023F0070308330393099B4B4409936DE768
:1017700005FB023201200F46A6E70023013705933F
:1017800019460A25384610F8012B303A092A03D9A0
:10179000002BC8D00591C6E705FB012101230746B0
:1017A000F0E703AB00932246104B04A94046AFF389
:1017B0000080B0F1FF3F8146D6D1A3895B063FF59B
:1017C00036AF09981DB0BDE8F08F03AB00932246F9
:1017D000064B04A9404600F081F8EAE7F47A0008D5
:1017E000FA7A0008FE7A000800000000511500088F
:1017F0002DE9F04791461F468A680B69DDF8208085
:101800009342B8BF1346C9F8003091F8432006460A
:101810000C4612B10133C9F800302368990642BF63
:10182000D9F800300233C9F80030256815F00605F4
:1018300007D104F1190AE368D9F800209B1AAB42DA
:1018400028DC94F843302268003318BF0123920645
:101850002DD404F1430239463046C047013020D030
:101860002368E568D9F8002003F00603042B08BFBD
:10187000AD1AA36822690CBF25EAE57500259342DD
:10188000C4BF9B1AED184FF000091A344D451AD108
:10189000002008E00123524639463046C047013057
:1018A00003D14FF0FF30BDE8F0870135C3E7E11801
:1018B0005A1C302081F84300224494F8451082F8E5
:1018C00043100233C5E70123224639463046C0475C
:1018D0000130E6D009F10109D8E700002DE9F04315
:1018E00001F1430C0C46097E85B06E291746064669
:1018F00098460C9A00F0B38022D8632936D00AD8D3
:10190000002900F0B980582900F0838004F14205D5
:1019100084F8421032E0642901D06929F6D12068A8
:101920001368050603F104012AD51B681160002B1A
:1019300003DA2D225B4284F843206F480A2239E003
:10194000732900F09D8008D86F2920D07029DDD13F
:10195000236843F02003236003E0752917D078291A
:10196000D4D1782384F84530644855E01368191DB4
:101970001B68116004F1420584F8423001238CE0B9
:101980001B68116010F0400F18BF1BB2CFE713683F
:101990002568181D1060280601D51B6802E068063E
:1019A000FBD51B8854486F2914BF0A220822002146
:1019B00084F843106568A560002DC0F29580216809
:1019C00021F004012160002B3DD1002D40F08E80DC
:1019D0006546082A0BD12368DB0708D523696268AE
:1019E0009A42DEBF302305F8013C05F1FF35ACEB30
:1019F00005032361CDF800803B4603AA214630460B
:101A0000FFF7F6FE01304DD14FF0FF3005B0BDE8D5
:101A1000F083394884F84510136821681D1D1B6840
:101A200015600A060BD5CA0744BF41F020012160AA
:101A30001BB9226822F0200222601022B7E74D066F
:101A400048BF9BB2EFE76546B3FBF2F102FB1133EF
:101A5000C35C05F8013D0B460029F5D1B9E71368D1
:101A600025686169181D106028061B6801D519607A
:101A700002E06A06FBD51980002323616546B9E7B9
:101A80001368191D11601D6862680021284600F066
:101A900037F808B1401B606063682361002384F855
:101AA0004330A7E723692A4639463046C04701300C
:101AB000AAD023689B0713D4E068039B9842B8BF61
:101AC0001846A3E701234A4639463046C04701304D
:101AD0009AD00135E368039A9B1AAB42F2DCEBE73C
:101AE000002504F11909F5E7002BACD1037884F83F
:101AF000423004F142056CE7057B0008167B0008C4
:101B000001F0FF01102A2BDB10F0070F08D010F8AE
:101B1000013B013A8B422DD010F0070F42B3F6D1B2
:101B2000F0B441EA012141EA014122F007047FF0CB
:101B300000070023F0E80256083C85EA010586EA22
:101B4000010685FA47F5A3FA87F586FA47F6A5FA5E
:101B500087F68EB9EED1F0BC01F0FF0102F007026A
:101B600032B110F8013B013A83EA010313B1F8D115
:101B70000020704701387047002D06BF35460338F6
:101B8000073815F0010F07D1013015F4807F02BF2F
:101B9000013015F4C03F0130F0BC0138704700BF80
:101BA00010B5431E0A44914200D110BD11F8014BFB
:101BB00003F8014FF7E7884210B501EB020307D89D
:101BC000421E99420AD011F8014B02F8014FF8E782
:101BD0008342F5D98118D21AD34200D110BD13F82F
:101BE000014D01F8014DF7E738B50546002945D00C
:101BF00051F8043C0C1F002BB8BFE41800F0D2F8D9
:101C00001F4A1368104633B9636014602846BDE864
:101C1000384000F0C8B8A3420CD92168621893423A
:101C200004BF1A685B68636004BF521822600460D6
:101C3000ECE713465A680AB1A242FAD91968581853
:101C4000A0420BD120680144581882421960DDD1AE
:101C5000106852685A6001441960D7E702D90C2312
:101C60002B60D3E7206821188A4204BF11685268AC
:101C7000626004BF091821605C60C7E738BD00BF1F
:101C80000C01002070B5CD1C25F0030508350C2D86
:101C900038BF0C25002D064601DBA94203D90C23D1
:101CA0003360002070BD00F07DF8214A14682146A1
:101CB00091B9204C23681BB9304600F063F82060CE
:101CC0002946304600F05EF8431C24D10C233360D3
:101CD000304600F068F8E4E70B685B1B18D40B2B68
:101CE0000FD90B60CD50CC18304600F05CF804F1F1
:101CF0000B00231D20F00700C31AD3D05A42E25034
:101D0000D0E78C424B6816BF636013600C46EBE76C
:101D10000C464968CCE7C41C24F00304A04205D05B
:101D2000211A304600F02EF80130CFD02560DBE7D5
:101D30000C01002010010020F8B5074614460E469D
:101D400021B91146BDE8F840FFF79CBF22B9FFF763
:101D50004BFF25462846F8BD00F026F8A0420FD2DA
:101D600021463846FFF78EFF05460028F2D031465F
:101D70002246FFF715FF31463846FFF735FFE9E702
:101D80003546E7E738B5064C00230546084623608C
:101D9000FEF7BAFF431C02D1236803B12B6038BDA4
:101DA000180100207047704751F8043C181F002BA1
:101DB000BCBF0B58C01870472E2E2F7379737465F3
:101DC0006D2F7372632F73746D333266342D6861B7
:101DD0006C2F73746D3332663478785F68616C5F32
:101DE000636F727465782E630000000000000000CD
:101DF0000102030401020304060708092E2E2F73B3
:101E0000797374656D2F7372632F73746D333266DB
:101E1000342D68616C2F73746D3332663478785F5B
:101E200068616C5F7263632E6300000061626F72B1
:101E30007428292C2065786974696E672E2E2E000F
:101E40006173736572745F706172616D28292066B9
:101E500061696C65643A2066696C6520222573228D
:101E60002C206C696E652025640A00005374616340
:101E70006B206672616D653A0A00000020523020C6
:101E80003D2020253038580A000000002052312023
:101E90003D2020253038580A000000002052322012
:101EA0003D2020253038580A000000002052332001
:101EB0003D2020253038580A0000000020523132E1
:101EC000203D20253038580A00000000204C5220C8
:101ED0003D2020253038580A0000000020504320C3
:101EE0003D2020253038580A000000002050535271
:101EF000203D20253038580A000000004653522F5C
:101F00004641523A0A0000002043465352203D20E9
:101F100020253038580A00002048465352203D20E2
:101F200020253038580A00002044465352203D20D6
:101F300020253038580A00002041465352203D20C9
:101F400020253038580A0000204D4D464152203D92
:101F500020253038580A00002042464152203D20BA
:101F600020253038580A00004D6973630A000000CC
:101F7000204C522F4558435F52455455524E3D20F8
:101F8000253038580A0000005B486172644661756C
:101F90006C745D0A000000005B4275734661756CED
:101FA000745D0A005B55736167654661756C745DAD
:101FB0000A0000000000000000000000010203040D
:101FC000060708097677889B9D988F7979888083A2
:101FD0008D8E92958F92826773768DA29B9EA0952F
:101FE0008C7E655B48404E5C758B89949E8F8879AA
:101FF0006A7C82858F91949A949A92777A7D838E67
:10200000928F968E7F705E5B463E4B5369858A98B1
:102010009D968B736A767D848E8C949D969994752B
:10202000747B879D9CA1A89A8D7D5F5F4A313E4657
:10203000617E8A959D9490847480837C858688983F
:102040008E938C73777B8BA29F9CA79E9280705BF4
:10205000483D4154677B8790958E837B6F78828261
:102060008B8B969A8E8E7F6D717782949897A39FB3
:102070008F7C6A6354465059697F838F9692877B21
:10208000737981848C8B909B97969078747A7C8DF1
:102090009294A19D927E6B62524344536B81929DB8
:1020A0009D9685776D71787784878999989A9077CE
:1020B000777D849798949B92867B675B513F4252D1
:1020C0006781898F9A92867F717A807B83878F9CC4
:1020D0009C9A957E7B84858F97939EA09286706351
:1020E000513E3F4859737F8996978E8075778185D9
:1020F0008A8F8E989893937B6E767B869397A2A116
:102100009889786B594A404956697E8992988E829F
:102110007574828081898A99A19F9D8A79777D874C
:102120008E9094978F857D6D5C4E46506273818C46
:1021300093938B8074737D7D7881888E9593958E33
:102140008283868A94929198948781755E4E484CDA
:10215000576570828F9B988980767B7D797C81869C
:102160008C8D918E807D8187909A9FA4A491857992
:1021700062544B4C545D6E838B9492877F7B838635
:10218000868681858E8D8B8A82787C83898F9195D6
:10219000948B8B7F6C6559545B5E667A81838582F4
:1021A0008384868782878A8D93949088817C7E84BD
:1021B0008C8D8F95948D867764595250575F6976D0
:1021C0007F89898A8C8A8C8A8A87848A8E898A8D7B
:1021D0008788898589909092938E8271686159551C
:1021E000585B69787F8A8A89818486818585858A1A
:1021F0008D8D918E86838586898E92918E89796C5C
:102200006A665E5B5C626A72797D80828592979174
:102210008F898889858387847F8486898F9090922F
:10222000938B827C6C615C5352585F65707A8287B5
:102230008F9A9894929093928C8788827A7E8283E8
:1022400084898D929488807D7068625E5B595C6140
:10225000656D767B828D93979D9F9F9D9A979694AF
:102260008E8583817C7A7B7C7B79777779787472B1
:102270006C6A6A6C6F6D6E72777C8187888E9292C1
:1022800096979798938F8C8A8A847D7A74706D6EF6
:102290006B6B6D7074797C7F808283848B8885867C
:1022A000827D7D82828183838688878786858383FA
:1022B000878683827F7A747474747777797E80815D
:1022C0008281808185888684827F7B7A7975767623
:1022D000787C7F8385848381878B8A8683807B7BE0
:1022E0007C797A7C7C8081848484827C7C808181FE
:1022F000817F7C7C7F7E7E7E7E8082848584847FDD
:102300007D8082838486837F807E7C7A7675767AF0
:102310007C7E817F7F8385858485828081807F80AC
:10232000807F7D7E808183807B7E80817F80807EB8
:102330007E7F7E7E7F808080807F83827E7C7E81A8
:1023400080817F7C7D7E7E7E7D7F80818281838493
:10235000807E80838384847E7B7B7B7D7E80818383
:102360008888898883807D7D79797A7571717377A2
:102370007A7F8386898A8B8C878280818180818025
:102380007E7B7878797C7F808586868A89857F7D4B
:102390007C7A7C7B7978797A787A7D7F828384876E
:1023A00088868080807D7F807D7B7B7D7E7D7D7D3E
:1023B000808385888A8984838480807F7D7C797B03
:1023C0007A797B797C7F8083868682818382818112
:1023D000807E7C7C7B7B7D7D7D8082868B8E8A84EB
:1023E00083807D7B797774767777797A7B7C7D8043
:1023F000838989878888878786837D7A78767675CA
:1024000075787C7E808788848483828382827D7ACB
:1024100079777778797C8185888D8F8B898785839B
:102420008283807D7C7A7A7A78787979797C8180E8
:102430007F7F80818183817E7E7B7D7F7F808182A3
:102440008182868481818182848786827F7C7A7979
:102450007877787B7C7F868784817E7D7C7F828194
:10246000807E7E7F7F7E7C7C7A7A7F82838483837A
:102470008284868483807D7E7E7E7C7D7C787C8069
:10248000818283848485868584807B787677787A58
:102490007B797C8182828181807F8385868584822D
:1024A000817F7B7C7D7B7C82858784838280807F2B
:1024B0007F807F7E7F817F7E7E7B797A7C7D7E8040
:1024C0008080828383817E7B797B7C7D8182818415
:1024D000878784817E7B7B7C7E8181807F7F7F7EFE
:1024E00081817F8183858483817D7C7A7C7D7F81EE
:1024F0008080807C7E7D79797B80828385848484E2
:102500008484817F7B7B7B797B7E7F8081838382D8
:1025100083818181828282827F7D7B7776787A7ADD
:102520007C8283838483817F7D7F8182818083819C
:102530007F7F7D79787B7F82868788898988838180
:102540007D7A7B7A797B7D7D7C7E818283838280AC
:102550008081827F7B7B7C7A73757E827D7F83879F
:102560008B8882828581807F84807D837D75787B66
:1025700075737B827E818B8C81818883827F7F7D56
:102580007B7C7C7E807F7D7E8588858686837F813F
:10259000877E726E727471797A777A879498949143
:1025A0009190918E8A7F797B7875716E6460676F88
:1025B0007983888B8D8E90877B736D6E737A7C7E2A
:1025C0007C77777C87909193989A98908A7D7070A9
:1025D0007376787B7775787C818A8E8B8F908A85ED
:1025E000837A70737879777872676A6D737C848E7A
:1025F000949BA19C918B81797A7C79747771686DB9
:10260000757C83899094989A97958D84828483822F
:102610007F79746B6F757575767A7D848A867D791E
:102620007574797876716C66667173747A7C7D7E68
:102630007E7E79716F71757A7D7D77737378818A0B
:102640008C8D95938A817A6E666B6F768288878986
:10265000898E959A9E9DA0A1A09C908B8480838A50
:102660008A88898884858F9399A1A9AFB1AEA396F2
:10267000867B7B7C7C7A777069696D757E808285CC
:1026800085827A7060514F525860615F5E5F636A05
:10269000767A797F858A8780776A60606464686A01
:1026A0006663656D79848C939AA3A9A6A1988E8B95
:1026B0008E8C85898A7B78858B8F959B9A9C999245
:1026C00087725F555754535A5B5C616C7A8A959F49
:1026D000A8B1B7B3B0A7968B89837F81776C6E74EE
:1026E000747E8B8D8E9296918473635549484D53B9
:1026F00056575B636F7A8798A4A4AAB1AFA2948A55
:102700007D7B7E777877726F757D86908C8D9089D2
:102710007E76695953575F7181878D949699A3B0DE
:10272000B6B4B3B6B8ADA0989088827E88909191E7
:10273000949F9F9E9B9C91847D6F65574C4E5862E1
:102740006E80888A8989898B8E858381807A716978
:102750005C57554F536066686C747779726A675D31
:10276000544D4A453F404E637483929A9B9A979882
:102770009F99908F8E8C89867A7475706F78868811
:10278000878C8E8F8F857E7C6F6261645C586270EF
:1027900081909CA2A39D9794959795908E8F908DF4
:1027A0008C837C7977777D8787878A8B8B8B837BFC
:1027B0007A6F635D58544F535F7281889193918D06
:1027C0008B8A8F90898A92948C857E7B766F7380BA
:1027D000898589929798948F8B8C807479706362C5
:1027E0006B7586969CA5A79E9EA29BA0A8A5A6B049
:1027F000B4AFB09E92948E88919D97989D9D9E9B1C
:102800008E82807A68615D54505158697777787B01
:10281000746F6E6E707876737C7E7A746A64645EB0
:10282000565D6866646C72777A726E70716859531F
:102830005456566478858C8D8C8B8A8584899394C4
:1028400097989B988B827F817B7172797B787C864D
:102850008D8C85817F807A645A5F5B5A6B7E8A910A
:102860008E8A8F8B8387898B9498979692877F76B1
:10287000777D7871767D787A8284878275717972B6
:10288000564E544F53607389938D8C918A81848204
:10289000869294949A9689888585887F7A848D8992
:1028A0008E979D9F998E8F9087786A676E757E92BE
:1028B000A4ADB0B2B2B0ABA6A3A4ACB2AFA6A19A7D
:1028C000928E8C908C807E8689888D90928C7F7C75
:1028D00079725C454346484E5D6C757474777A76C0
:1028E0006F6D6D777A74716D645F5E606A695E6248
:1028F00073787C8991959185817F735E4E454A56A8
:102900005C6B7E86898E8D8D8A8480828E8F8A858F
:10291000807B797778827F737986888C939A9D9C67
:10292000908A877866524A50585E6D7D84898B8C78
:102930008E8A81818690928D84827A7375777D7676
:102940006A6F7C7F828C9093938A888578625046E8
:10295000485459647681848B9094938F8D97A5A564
:10296000A3A09994908B8F9186808B949AA2ABAF01
:10297000B4AFA5A49E9181706A73787C8B979CA05C
:10298000A1A2A7A29C9DA9AFABA59F978B857F8293
:10299000806E69747878808586898077766C5745F3
:1029A000393640454B5A64686C6F747573707B8A16
:1029B0008B8B8B877E7B77797F73676F78777D844E
:1029C000898E877E8080715C4F4F53565E6E7B7C14
:1029D000797B82837F7C8291939396958A81797C9F
:1029E00082786D757E7B7F858B8E877D7F84796312
:1029F000595956585E6D7D7E7C808988837C7E8B9C
:102A00008D8C9090847A73767F776A708085888CBD
:102A10008B90897B7B81755C53545A626973848B7C
:102A20008E969D9F9A93979F9E969A9B9797919625
:102A30009B968E969EA2A6A6AAB2AD9B98988B80D6
:102A40007B7C8185848D9A9C9B9C9FA3A19A999A5B
:102A50009792928F8C87827F7E7A7676777B7D7C49
:102A60007A7A7169665F554F4B48494D4F545D61A5
:102A7000656B73797C7E7F818181828382817E799F
:102A80007776767576757678797A76716F6C6B6D08
:102A90006B696664626467686A70757D848A8D8E0E
:102AA0008F9092959695938F888483817F7D7D7D8D
:102AB0007E7D78746F69686866666664646564665E
:102AC000696C717A80858B8D8E9192939596938E99
:102AD0008B86827F7D7A7A7C7976777471716F6E5E
:102AE0007274737679797D83888E93979DA2A6A65A
:102AF000A6A5A4A6A7A5A3A4A2A1A3A5A4A3A29D9D
:102B000098948F8B89858080828487878687898C3B
:102B10009398999A9C9C9C9A95908B867F7C7D7AC1
:102B20007673706F716E68635F5957554F4C4B4A9F
:102B30004C51545A636970787D838A8D8E8E8E8B4A
:102B400088867F7A79797A7B7D7D7F7C7775716BDA
:102B5000696A67666766656565656B72777F868C8F
:102B600093989A9C9C9A9A9A958D8985807C7D7D74
:102B70007F827D7876726F6F6B686969696C6B694B
:102B800069696B73797E8388898B8F8F8E8E8B8832
:102B900088878584837F7F7F7C7976716C6C6A6A95
:102BA0006D6E6F7476787E82868C91969CA2A4A6B8
:102BB000A7A7A7A7A6A2A1A0A0A0A3A3A5A6A3A0DC
:102BC0009D9794948F8C8C8D9193908A898E9598F3
:102BD000979290949CA3A19C9B9FA0A19C968E8C65
:102BE0008980796E61544D4A524D4952585C5C5906
:102BF000555A5956565A606770757F84868D9697D8
:102C0000918E8A8D8D857A706862636161615F6380
:102C10006B7072747673706A645F61636C79818AB9
:102C20008F969A9F9A929191918D897E78736E6B0F
:102C30006B666467676D716F6F73726D6D67656AE0
:102C40006E758186848B919596928A898A84817B20
:102C50007570707071726D6D7071706F6A6C716F7C
:102C60006C686A7484909BA0A0A7AEAFAAA59E9B37
:102C70009B98938D86817F7C7D817E7F858A9097CE
:102C8000989A9D99948C86899198A3AEB3B9C1C541
:102C9000C1B9AEA4A29C948A817B797876746B6565
:102CA0006263646565666C6C6B646063696D7279A0
:102CB0007B7E8385868886878B88847B7169666343
:102CC0006569636466656869625F63605F5C585DDF
:102CD0006976839094989E9F9C99938F9090908C06
:102CE00086807B746F6E65616060656A6F747A79E7
:102CF000757069696E74808C939CA6A8A7A79E9531
:102D000096918A857B6F68656669635F5E5C5F65C7
:102D100064687275777975767A7A7D8486889194FD
:102D2000929497979DA09D9992887E7A7A7A7879E5
:102D30007B7B7F84807D7F7E7B7A7979818B97A670
:102D4000AFB4BABBB9B8B7B3B4B9B8B5AFA69A9077
:102D500089847B75726C6B7071747F83817D7974EB
:102D600074767C858A939B9A97978F8481807977F4
:102D700071645853545656545253555C6062696F8F
:102D8000727576777B7F7F82838388857E7F807F65
:102D9000858D8B8884796D686768686B6B696B70EB
:102DA000706B6D6F6C6C6C6B6C747E8A969CA3A060
:102DB0009A99958D8C929293928B80786E69635FCD
:102DC000595656585F6268707473747372747A805F
:102DD0008890999B9A9C9D9590908B8783796B6640
:102DE0006365696C6B67696C7173767D85898A8EA2
:102DF000909296989A9CA1A19B9799979AA3AAAB17
:102E0000ABAA9C94908C8A8F908B8E92928F8A869C
:102E10008585848483858C949DA5ACACA9A39F995A
:102E200092929393928E827A7269615B55504C4B69
:102E30004D51555A626668676565696F78838F96EC
:102E400098989997908C8885837D6E615B57585EC2
:102E50006162636465646362676D727578797C7EB4
:102E6000808085898784848581878C8F9391877DF5
:102E700078706D70737476787A7B79736F6E6E6D1F
:102E80006A6769707A838D95969291918A898D8E01
:102E900093958D837E766C67635F5F5C5E6163692B
:102EA0006F777F83817E8080848D969FA3A7A8A95A
:102EB000A49F9B9798978F847E777475787A7E7E8F
:102EC000808485858990969DA1A5A6A9ADAFACAE5D
:102ED000ADA7A19E9993979A9FA09B91897F7876A1
:102EE000747475757373706C6764646562605F5F3A
:102EF00066717B858E8C8B8A82797676787D7D78FB
:102F000075726B65625F5E5E6062606466676F7457
:102F1000706E716E727D858D989C9DA09D958E883A
:102F200086837D766E65636261686E6E6F737270A4
:102F300071747B8082838586888B8C8E8F908D8B3D
:102F400088837E7F868C8B86827B746D6C6B696BCD
:102F50006C6C6C6A66636567666364686A71808CB2
:102F6000959C9EA09E97918D8F9294918D89847F40
:102F70007B7672706E6F6F6B6A70767D807D7F82FC
:102F8000838C99A3AFBEC3C5C9C5BDB5B1ACA89F5D
:102F9000968B807C79797D7F7E82827D7B7B7A8037
:102FA000857F7E8380818689898B8D8C8C878480C8
:102FB00080888A847F786B67615B5B5B575C615F4D
:102FC00061646567696663656569727D89919496D8
:102FD00098948D8683898B8988827876736A6561F7
:102FE0005B5A595655565A666F707277797C858F41
:102FF00099A0A7AAABA8A69D928F8E867F7A6F6AAA
:103000006564686A696D706E6D6B6A6E72727071FC
:10301000757981888C8F949292948E86858B8E8D13
:103020008B8378706B67666A6C7074777B7D7B7B53
:103030007C7976747271757F8C96A1A9AEB1AFA8B8
:10304000A2A2A5A6A4A19994908983827E7B7F8168
:10305000818284888E8E9093908E93989BA2A9A94A
:10306000ABAEADA7A29E9B9791877A6D625B585AD3
:103070005A5A5D5F5F5F5D5E656A6E7475767D81CD
:1030800081868A878A8B87807E7E808385837C7415
:103090006C646161616163666B6C6A6766656667D3
:1030A0006665696E7482898E969A9997938D8E90D3
:1030B0008D8781766E6C6B686868686C6D69676710
:1030C0006971777A7A7C7B7A81898D929B9FA0A3A4
:1030D000A19C9C9A9188796658504A4C52545D69DB
:1030E0006E6F71717681888D91908F949392929189
:1030F000909393908F8F929596928B827A726E7046
:103100006E71787D8084878A939EA3A6A6A4A2A0D0
:10311000A2A7ABADB2B5B4B1AAA39F9B9491897D90
:1031200077736F707472707474706F6F737C818456
:103130008886828080808486898D90939089827C25
:1031400072675B4E413A3A3E464F5A65717C8286C1
:103150008C939796938E8A8887878786888B8C88AE
:1031600080777372716D68625C585455595F6673ED
:103170007F8A94989DA3A5A29F988F87818081853F
:10318000878787857F787270706F6E6B686A6B6FE8
:10319000777D81898E92928F8F9195989895928F55
:1031A000908D888482807E7E7D7A797B7974726D41
:1031B00063616368717B8792999E9E9E9E9C9B999A
:1031C0009A98938B8681807C78787672706C656330
:1031D0006363696F7272767E858B91959BA0A2A5C1
:1031E000A5A4A19C958B7F73665E5D5C5D6367693A
:1031F0006D7074757A8085898B8C8C8D8F95969681
:1032000099989795948C86837C7A767068615A59E0
:10321000595A5F68737F8891979A9E9C9A97908974
:1032200086858282878B898384807A7877716F6EB6
:103230006B686666686C6B7078818283858C959705
:1032400099A1A8A7A29B938C82726C6C6666676337
:10325000626868687073757B838A91918F96978C8A
:103260008992939598928F90867C7C776C66625A4F
:1032700054504D555F66717E8991908C949C9599C0
:10328000A4A8AAAAA49B96847674685C5C5D575E29
:10329000656A737D818387878B83838B88808C9617
:1032A00094999A95928D7B7672635F625E5C63629D
:1032B000646E7376838B919495A2A29D9EA3A19E2A
:1032C0009F958A81766563574E56545359605D6762
:1032D000737A868F9EABA7A7ACA49399948E988897
:1032E0008795ABA2936F493C434C4F686F7F8694A0
:1032F0009EA3A1A4AA9FA6987E66505C6C6C746D78
:103300006E6963685E5A5B56505E7167798170774B
:1033100090B6BAAEA5A28D7C777F7C808B879F9577
:103320008F858B838494876F646D5F6C767F8790C5
:1033300084817C76796F6B73726B6F6D726B6A6070
:103340006F6A6B7A8479839B949A959A99B2BDCC73
:10335000CCC5D5D7CDC8D0D1C8C0B2A29D8C7E7205
:1033600066555A59514C4B4841474B474B57555658
:1033700046494742454B53545B565A534D50555559
:10338000586061657174828689999AA5A7AFAFAEBE
:10339000BBAFA9B0BDBEBBC7C2BAB1A4998C828372
:1033A000888580878C88888A908D919491928B9162
:1033B00093847D868B7B79736356493D3B3B3943D0
:1033C000464A4B53545C646B7A7C8587877D7D7D50
:1033D0007673757F7D7C7B79716664635F636C76E1
:1033E00078828B8D95A0ACB2B2B8BDB7ADA2A69EC7
:1033F000979CA4A09CAAA6A1998E9691888790904C
:10340000838A918B8E99A0A5A7A9ABAD9F98A39D08
:103410009B9BA4A2948E877F6B645E57534F53533C
:1034200047484D4E515762646C686D7069666667B7
:103430006360696D6765696B5D59575047413F40EF
:103440003D3C47515A6777899197A4A8A5A2A4A8A3
:10345000A1A0A0A5A19A9EA0998F8E8B8277787843
:10346000787781878B8C929BA0A1A7B2B1B2AFB0C5
:10347000B2ADA7AFADA69F9F9A877A716D605B5E74
:103480005F5F61656D6E707B8A8C909A9A99918569
:103490007B796E696A6F6C686B6B615557504C4CE9
:1034A0004D525352555F5E636F76797A7679766ABC
:1034B0006C6D6E6D6F7377777175756F6D6C706C09
:1034C000676F716F707981868E96A2A8A2A8ACA949
:1034D000A9ADB3B2B5B5B8BBBCBAB8BCB3A7A59ECD
:1034E0008F87857F7C7E7D858B8B94A0A5A6AAACDB
:1034F000AFABA7A8A29A938F918E8786847A6C66C9
:10350000605D58565B6061606968696E757E818632
:10351000898D938D83878474727674706F6C655E09
:103520005452524E4B51565352595E5D626A7173FA
:1035300076757A7B717276756F6C7070696566618D
:103540005B58585C5A58595E5F5E686F747880812A
:103550008280808483818389898382847F7E817D48
:103560007C7C7A7F8483848989888C9092959592DB
:1035700095989C9EA4A6A4A4A7A6A8ACA9AEB4B2F4
:10358000AEADA59D98918F909295969A9DA3A8AB6C
:10359000AEB5BDC0C6C8C8C4C0BBB7B3ADACAAA0A9
:1035A000968E847C756E6B6B6B6B696A6A6B6E73DF
:1035B00075797A7C7E7D7B7876726E64625E564C1D
:1035C000433B32313233373A3C4346484D51555AEA
:1035D0006165686D6B6865636162605E605F6062B3
:1035E0005F5854535252545556595D636B70777CF3
:1035F00082858A8A8B8D8E9092969795928E8C89F1
:1036000084817D7A7A7C8082868B9094989DA3A613
:10361000A7A7A29EA09F9E9E9D9E9E9E9C9A9793CA
:10362000918E8C8A8E8B8A8A8C8F8F8F8D8F9293BE
:103630009595969496979595928E8A88868383849D
:1036400082807C7875747475767A81858A8F92947D
:10365000979798999794979A9C9A9A98928A817D2D
:10366000777067615E5E6063666C71757A7F828178
:103670008285837D7C7C78746E68635F58504C4B88
:103680004748484A4C50565F676C7176797C7F8416
:10369000888A8A888786827E79746D6B6E6F6D7179
:1036A00077797C7D7E807F82878C92999EA1A3A36F
:1036B000A2A3A09A96938F8F9293939293949190B2
:1036C000908F8E8B8A8B8F929294959695959494E9
:1036D00092918F8D8A878482807E7B7774726D6BE6
:1036E0006B6B6D6D6D6C6D6F6F70727370707272ED
:1036F0007171716E6F6F6D6D6C6A6867696B6D70FB
:1037000073767876716C6968686A70757A7F838879
:103710008B8D8E909194969AA0A2A5A5A4A29C9818
:1037200093908E8D8B88898C8F919598999896958A
:103730009697999895948F8C8A857F7A7774706F15
:103740006E6B6A6B6A696A6C6D6D7074787A7D8075
:103750008384878784817D7A7774716E6C6C6B6CDF
:1037600070747A7D7D7C7C7E7F7E8185878788856D
:1037700083807B7975747373787D81838688847F79
:103780007C7A797A7B7B7A7B7B7B7C7C7D7D7B7C86
:103790007D7E80827F7C797876736F6966686767E3
:1037A0006A6C6E7172716F6D6B6B6C6C6F7374762B
:1037B00077777A7C7A777574757578777676777699
:1037C000727377787A787577797C7C868D989E99F4
:1037D0009B9A9A99989694969BA0A7ABB2B8BABBBD
:1037E000BABBB7B5B1ACA5A1A09F9B98979A9B9B7C
:1037F0009EA4ABADACA79F968D837B71696766660F
:10380000686A6E6E70706C6C696A6A6A6D727779DC
:103810007E82858684807B79736F6C67615E5E5F74
:103820006060676A6B6E6E706F6E6C69696C7071E8
:103830007475797D7D7F7D7B7A78797A78777774F6
:103840007474767A7B7F7F7F7C76716A6664656646
:103850006B7179858B929392918A85837E7A797840
:103860007A7D7D7E7E7E7C7877716D6B6B6C6F72FE
:10387000767B7E82838482828484848584807E7A3F
:103880007A7B7B7F828588888B8A888787878A8DE9
:103890008E91939BA0A4ABACB0B0AFAEACAAA7A4E2
:1038A0009E9F9C9C9CA1A5A4A8A8A6A2A19FA0A203
:1038B000A0A5A5AAACACAA9F9991877E79716C6AE4
:1038C0006A6C6A6B6B6866636060616166696C6F85
:1038D0006E6F6F72757675716F6D6A686762605D25
:1038E0005959585961686F75787B7B7978716D6D1E
:1038F0006D6F73777A7E81818285848082827E7FFC
:103900007E7B79787B7E80808183837E7A767174FA
:103910007375787A83898F928E8A87878687837F6B
:103920007C777572706D6968656B6D6F74787D8377
:103930008684868484878584838587898986847E36
:103940007B78716F7076797E7E82837F84848384B6
:103950008B8E99999EA6A4A7A7A5A09995979193B8
:1039600094909191959A9A979896949492908F901A
:10397000949A9A9C9FA3AAAAA499918C847F797007
:103980006D6B6A6B65646060616367676B6F716DB7
:103990006E6D69686667686D707379787977797527
:1039A000726D686564686D74767C79797D77746E04
:1039B0006A6D6E6D6C707778767A7775787B8086B5
:1039C00086898A86868483807E7A7A7B7A7A7677FD
:1039D000797A7B8081878A888C87898A82878986A1
:1039E0008885837E75706F656967666B6970757AA7
:1039F0007B817C7F827F8684888A8884827E7B77B5
:103A00006E6D67656A69737C818788878987818520
:103A1000808690909B9A999EA1A4A2A09C9A9A9C21
:103A20009B97999996999A9A9A9D9E9E9FA2A4A5D2
:103A3000A8A6A6A2A19B9A9C9B9D94928F898684FE
:103A4000827D7A726F6C67666867686A7074777A6D
:103A50007875716E69676469666B72707571706F85
:103A6000716C706C696C696A686D6D6C6D6D6A6B98
:103A70006E6F71737778787A7C7B797371727379F2
:103A80008185858686847E7F7C7979716F6E6F7083
:103A9000727174797E808187898B8E8D8C8A848403
:103AA000827F7B7873716C666B676A6C6E757776F4
:103AB0007877777C797F7D8087878B8D8986837CFB
:103AC0007C7A74736F6D70737B7F81818183838354
:103AD000878D9092949695969493929396969798B4
:103AE0009D9DA0A09FA09D999698979B9A9C9F9D15
:103AF0009FA2A1A09F9C9B9592919394918F8F8B55
:103B0000878783817F7C79767373736F6B6D717137
:103B10007275736F6D6C6C6B6D707274716C6B67BA
:103B2000636567696D6F7171727372716D6D6E6AC5
:103B3000696A6B6D6F727574757776777978797A53
:103B400077797D7C7E7C797674747579797A7C80DE
:103B50008080817D7F7C7F8184878A8E8F8E8C8B15
:103B60008985817D7A74716D696B6B6E6E71727708
:103B7000797A7F8184878A8A8B8B8C8C8A87827EF4
:103B80007977767574747474717275777B7C7E84C2
:103B9000888C9295959999979492908F918E8F9207
:103BA0009395999B999B9998979799999A99979991
:103BB0009C9D9EA09F9F9EA09E9C9C9E9E9C989438
:103BC000918885817F807E7B7A78767675746E6D3C
:103BD0006F6C6C6D6C6D6B6D6E70717376777575E7
:103BE00076717375727473726D686663626463650F
:103BF0006C6E707474747373737374777B7D7D7D76
:103C00007E7F80818281807A777371717274737321
:103C10007577777B7B7C7F838787898B8C8F8E8C76
:103C20008B8783807C797876737170707272717013
:103C30007275777E8385888A8D8D8C8A8784807C57
:103C40007A7A77787776787674737172757B7F80FD
:103C50008286898D9191918E8F8E8C898A8C8E8FA0
:103C60008F90919192929597979A999A9B9C9E9AF0
:103C7000979898999A999A999A9A979797989895C0
:103C800092908E89878481807E7C797774716D694A
:103C90006566696A6F717375747674727272737324
:103CA000717271707273747674706B676565666734
:103CB000686A6C6E7072727375777B7D81838384A2
:103CC0008282807D7C797877757472707072747678
:103CD000757679797D8184888A8E909092918E8D87
:103CE0008B888785827F7D7C7977736F6E6D6C6C36
:103CF0006C6B7071747D8286898D8E8B8B8A8785C3
:103D0000817E7E7D7B7876767572706F6F71747749
:103D100079797E808085868689868789898A8B8E57
:103D200090909293949595989B9A9A9A98979A972F
:103D3000948E8B8C8B8E9191939496979696959664
:103D400096949294918B89868785837E7976716E1D
:103D50006C696768686B7070717272727274757575
:103D60007878777B7C7B7B777776726F6B69696914
:103D70006B6C6C6C6D6F7272747677797B7C7E8005
:103D800081807D7C7B7B797A7B7B7A7A7977797885
:103D90007877757577787B7E8185888D8E8E8E8D10
:103DA000898986848482807D7B7975757270707153
:103DB0007172727276767E828384848382807F7F42
:103DC0007D7D7A7A7A7A7878777879797877787960
:103DD0007F818281828082868688878B8C8D8F8F7F
:103DE000918F8F8E8F90929294979A9C9D9D9C9B81
:103DF000999995918F8D8E90929396959898999B7D
:103E00009A9C9C9B989995928E87847C7A74706C0E
:103E10006A6867666567696E7173747779787878B0
:103E2000787979777878767373717272716C6A6B5E
:103E3000686A69696768696C717273757B7D83866E
:103E40008586858280807D7C7C7B7C7A797976759D
:103E50007575767775777A7D828487898C8D8C8C61
:103E60008E8E8C8989888784807E7D7B7A7A78762D
:103E70007373707271727574787A7D7C7E808183C1
:103E8000828281817E81817E7F7D7E7D7C7B7C7C48
:103E90007C7B7A787571686C6D747576787E8B8BA7
:103EA0008C8D939499999BA0A2A7A7A69C9E9A9665
:103EB000928E8D908A7F78767C818488919FA7AC42
:103EC000AEAEAEACAFA7ACA7A19C9999978D80730D
:103ED000676257575555535354626F7270757D859D
:103EE0008783848593948D848283817B71676467E3
:103EF0006765615F5B5953504F545E72838C909538
:103F0000918B847B7E8285868F93999286786E676B
:103F1000625C59636A6F6D6D66696D757D838D9A9C
:103F2000A5A6A09C9A9795908E8E8F8C89827C7383
:103F3000685C58555857575C636D7B8385868991BB
:103F40009187808D959D9A9694959489796A6B6CEA
:103F500069676B6A685E56575B616A7B8997A5AD36
:103F6000A39695999E9A969CADBCBEAD9A8F87807C
:103F7000726869747A7D81838583868A929DA4A301
:103F8000A0A8B5BEB9B1ABB2B8AB9585837C756856
:103F90005B5554504B4E505863717D8A8F8F867E8F
:103FA000828689898D919DA39A8670656057484560
:103FB0004F5A616160606462656B747D8282808B40
:103FC00093948E8D909B968679707274695753592D
:103FD0005E595B5465777176859998948D7E80855E
:103FE0008693A5B4C0B795807E7F73584C606F6F81
:103FF000716660746F6373717789837995948C941B
:10400000888F9EA28E8A7F847F6F5A55676D7668EF
:104010006E6F7E86838789887B76727D808B8A919E
:10402000A4B4B6A18E8D8C82706C7682867E7B7CE9
:104030008284857D7F818B918E8E9899999EA5AD86
:10404000B7B2A9ADA9AEA19181807E7F796D72775B
:104050007B7B80757468635D5B6977848B969BA9B5
:10406000937E716D6966615C6A6E6C5F64666F7287
:104070006A747680877F7574717581848E94969446
:104080008A81776E61585363756F6D6D757B81831F
:104090007D79777D786E6A767F888C939CA8A493CF
:1040A000867876737676838C898481807D7B75773C
:1040B000888F969182777276787B7C8D96A5A59174
:1040C000807568615B5B6E7479787D80817F767ABC
:1040D0007A78807B777173767E81849194A19284C3
:1040E000787979716C6477848D8784868B969D9EB0
:1040F0009D90888B82787172839799AAB2B8B79F86
:104100008C878485888595A7AFA4978D8D837878D3
:104110007B7F7B817B746F6E72767C829096A39D91
:1041200083746963635C555F6971757677777272C2
:1041300074706D696B6E726E757F858E92929498B5
:10414000907D6E665C5B5A596773767372747A7988
:1041500077797A807C797E7C75707582999E9A9B3E
:104160009AA1977D69676A767D7A858B8B81726D5E
:104170007371707A7D888678757269666F7D98A490
:10418000A5A59F9E95775C58576168667381817F6E
:1041900078747B7772757C8087817E89868184853F
:1041A0008C98949AACB2AFA891847C6C696669765D
:1041B000838C928A83827C7B80848992929DA9A33E
:1041C0009F9A98A6B2AEB7C0C1BDA9928272645C34
:1041D00058616B727C7F79726A64676A6D717682EE
:1041E000848D97918C887F7E81797D7F7D7A7167C0
:1041F0005B524A4549566674838C8D857C77737112
:1042000071706C757B8791897F7E7F84847C7E83CF
:104210008480786F6A5C4D4D4F5B66686E7A8187EB
:10422000827C8183858B8C8D96949DA296928D84C1
:104230007E7C79838D8A84756B6655403C41556DD3
:104240007A89969994887C8087888D8F90999A979F
:1042500095847A7A77797F80868C8A888176777060
:104260005F5855617786919FABB0AA968A8A8A8BF0
:104270008F8E99A6A4A39C8E88837C828891A0A30C
:10428000A39D918886807B787A8996A0A7A9ABA701
:10429000947E7575787B7C7D818488877A6E6A6E62
:1042A000787D7F868B8A8373655E554D4747566A56
:1042B000788080838680736866707D848785858238
:1042C0008382766F6F727B8182898C8A7F6D65684D
:1042D000615D5C5C65717C8B928F8A7F75696164BE
:1042E0006C767D838C8C8E908583888E9CA3A1A711
:1042F000A5A08F77676059595C5A60626871777CB6
:1043000083848581797A797A8080898B9199918C5F
:104310008A898C8D898E9290897B74746D676365B0
:10432000707A7C828B9198999B9F99938D868685D4
:1043300088888C9289898B888B8882888B8C867DF3
:104340007C7A777371757C7D83919BA1A19D9A98EE
:10435000928988817A7370757A7E736F757E87858E
:1043600081858D908E8782817F746B6C727777796F
:10437000829298897D76746F6C717C87888682873B
:104380007D6B676A79827E838F94907F7376787372
:10439000727379868A8989888982786E65645E55A8
:1043A0005A697B8784818A8A7C76748495959DAED0
:1043B000B8B6A0867D74665C596571757774787936
:1043C0007069696F777E7F82868F97989793908FB9
:1043D0008784827A77706F797D7F7F7D7D7E7B7821
:1043E0007876736F737A7F817D828D938F8A8582D1
:1043F000817D7D82888888827B77756F6761627234
:104400008184868A8F908578777C807F7F87939C54
:104410009A94908F8C84756B696C71787D7B8082A7
:104420007F7C7572777B7C8387888C8A86817E7F90
:1044300083898F969A988E847C78746D6A6D73796F
:104440007C7876777A7F807F807F8184868986807A
:1044500082899196938E8986868481807D7A77720F
:104460006C6868696C6F73797E7D7E848B93999E8E
:10447000A2A4A19B8F867B706D6B707A7C7A756F1E
:1044800070727174767C888F9194908A8781808312
:10449000817F7E7D8487807A757173737173767B7B
:1044A000828386888788837E7F8283888F93948D9A
:1044B00086817C7874717376787A78757574747780
:1044C00077797B7C7D7D7C7B7B7D8083898D8F8FE5
:1044D0008F92959492908B847D756F7070707070D0
:1044E000727375727071767F858B8F8F908F8B87CB
:1044F00084817F82889091877E78787D7D7F838696
:1045000088857D776E645F5B626F787E848C979B15
:10451000958F8B8A8986838181817F7D7D7D7C7863
:10452000706A696B6F73777C81858888878A8B8CCA
:104530008A8C90929088838283807A76797F7E7845
:104540006E6A6C696F7274818B9199979596938E50
:10455000867C7A766F6D6C6F7474727579808280E8
:1045600081878F938E86848584817F7F81858787ED
:10457000858079737173797F828485837F7A736C88
:104580006968676C757F87898B8F90918C8585862C
:104590008684828488898A8D8E8E887C74727476F3
:1045A000736F70767A7C7B7B7E81868A8C8B8B8620
:1045B000818785858A8C949C9A9287786F666061E2
:1045C00062676D70767D7D7F7F808486878887882F
:1045D0008A868686888D8E8E8C8A8283816F6965B5
:1045E000687474727A8186857974746D69686C7A7E
:1045F0008C97A2A9ADB0A5948579746D66676E7627
:104600007E7D81807070767F898786939D9D8C7971
:104610007779736C6265777C8089898F91838181DA
:104620007F817A7481898D89807F888670696E80A8
:104630009591888D8E8E8A7B695D4C485762676E36
:104640006E7C94B0C1B4AB9D8D7E8277666B718CAD
:104650009990857D797C7F8180807E73695A5B5BD0
:1046600056616A6F7D929FAFB9BDC1BDB8AB9C89E1
:104670007F777A787279778175666865615C525266
:104680006265635B5A5E5D5D56525E738495A8B742
:10469000C4CAC0AEA9A8A09EA19CA6AC9D9D8578C9
:1046A00082848B8E8687928F877259544D3D363027
:1046B000384B54606D7172674D3F3E3F444C505CC7
:1046C0006F747C7460666A758A939AACB1AFAE9F62
:1046D000A1A398989AA3B4C0C1C6C5C7C2A9948C17
:1046E0008A8F9999A4B0AEABA892807B727A7F7FB3
:1046F0008E928F8A7566614F454C516372737A78DA
:1047000074776A564D4F576369747C797477756610
:1047100064667184898D9499998D786C6D615B590B
:104720005C75879197999794816F6C72818B95A036
:10473000A9AFA8A59C9291969FADB5B8BEB8A68E1C
:10474000746A685E5E626D808A939A988E7F695EF5
:1047500060656C6E72797C77707060595A5E7279A0
:1047600076797A78725C4D4F4A484C5065777F85F0
:10477000878781786767717D82807C7C827C7C738F
:1047800064686F7C89888E98998F7F70716F636180
:1047900062768D95A1ACAEA99C87828B939A9DA1E0
:1047A000A8A9A4A6A395959AA7BABCBEC4BFB7A54D
:1047B0008E8889807D7A81969FA3A6A4A59D887BFB
:1047C0007C7D80808289938F93907E7C797A8685A8
:1047D0008590938E80665F5F50494343545E656960
:1047E000645C4C36282E34393D3C48575761605242
:1047F00057555D6E6E6E78757367505151454644DE
:104800004F6B76838E91938A746C727A8283868FD3
:104810009B9BA098909597A0A8A6A8AEAAA38C7CD5
:104820007D766A6662768F99A9B5BCC0B19B9A9C69
:104830009D9C989AA8ADB0B8A89F9D9BA5A6A2AB39
:10484000ADA89A7C706C5B4D41415D6E7B878C900E
:104850008C75666C717778767D8683857B696A6CEA
:10486000767E797A858480705C5B564A433B485EED
:104870006672787E87816D696F73797877808588B5
:10488000907F7977798587858F98968F7A74766E01
:104890006A5E5B76889AAAACAEAD998886878A8A6A
:1048A0008789918D98907C7E7D88918F8F9B9B9836
:1048B0008671736E635E5462808E9DA5A6A89D86E8
:1048C000808081878988999EA4AF9893999FADAB8A
:1048D000A2ACAEA5997D7577685F54526875808EDD
:1048E000959A9882716F6B6B6D6B6F7A7D8F8779FC
:1048F0007E7D8689818694928D7764645B4F423594
:10490000425765727674756A585454545B5E5C65A0
:10491000646F725B5A606D7E7C75808280715752C5
:10492000514C463A3C5060717B7E84857873747735
:10493000818A888D9398A99D94999FACB3A9ACB6B0
:10494000B4AF9A8E8F89847E78889DADBBBEBCBF84
:10495000B4AAAAA6A6B0B1B6BCBBC8C2B5B5B4B914
:10496000C0B6B0B1A79F89756D665F59535A6D7E09
:104970008C95928E8274716E676C6E6E746E7573A8
:1049800066656A7380837D83807A6F5D534B454390
:10499000434956616B7575737069686861626967D0
:1049A0006864676C6564686E777B767B7D79726717
:1049B0005F574E4845444A5A6A7E88888682838378
:1049C0007E7E84858988898B827B7E848D9595996E
:1049D0009E9C958C857C736F6F737A818A959C9C65
:1049E00098969899989596989A989C9F98989BA134
:1049F000ABB0ADACACA59D958E887F7976787C8187
:104A0000868D95999793918E8A87868788878689E0
:104A100088878C90959B9A9799978F8881776E68F5
:104A2000635F5E5E6067707578787B7D7B7A797690
:104A30007476767B7D7B78777A7F8281807E7873CF
:104A4000706C645E5A5556585A5E63666970767E1D
:104A500085888A8D8B87857D7879787A7E807F823C
:104A6000837F7F7E7D7E807D7B7A76716C69686CCA
:104A70006D6F757D838A8D8D919598989896959791
:104A8000989793939392908E89868683818484806D
:104A90007D7C7C80817F7F7F808588898B8C8B8DDE
:104AA00090908F909191918E8A888682808080816B
:104AB000828283838382807D7876787A7B7B7A7921
:104AC0007978777674737374777B7F7F7D7B7A7860
:104AD00076737173777A7C7B77747272747475787D
:104AE0007B7E7E7D7A76726E6B6B6C6D6F71747788
:104AF000797B7D7E7F807E7C797674757475757622
:104B000078797A7B7D82878A8B8B8A8A86817E7D83
:104B10007E8083878A8D8C88837F7D7E8284868851
:104B20008787878483838386888C919494929090DE
:104B30008F8C8987888C8D8B88848182818181800C
:104B40008285898D8F8E8D8B888583807E7B7A7D13
:104B50008183848586888A8B8A8986858483817D02
:104B600078726F6D6C6C6D6E6F7074797C7D7C7A11
:104B70007B7C7C7D7C7C7D7E7E7C797777787A7C83
:104B80007C7C7C7A7773706D6A68686A6F73747402
:104B9000767777797B7F8588898885807D7B787635
:104BA000777A7F848788878585827F7E7D7F8080F6
:104BB000828484858485888A8A8987878A8C8D8C7B
:104BC0008A8783807D7C7C7D7F81838689898582BD
:104BD00083868B8D8D8F9091908A837F7B7C7F8164
:104BE000838685848382817F7D7C7B7C7E7F7C79CC
:104BF000757473727274787E83878A8A88868383D9
:104C0000827E7C7D7F80817F7D7B777271737579F9
:104C10007C7E80817E7C797777787A7E81838586B9
:104C200084827E7B78767573747676757576777800
:104C300077767A7F83888A8E9394918B847E7C7B2F
:104C400079797A7A7B7B797876747376797D8282CA
:104C500081807E7C7B78787C82898E8F8C8986832C
:104C6000818181808284858785807F7C7B7D7E8039
:104C70008484888D8C8B89898786868282808082D5
:104C80007C7579736C726D777D8088898E8F8B8748
:104C9000887E777C777B888A86878589807C787B0D
:104CA00081808585847B7D797D7A7E7775767D8F21
:104CB0007C8F877065697B7E874F6A9FA4875B4680
:104CC000457B897F63617095B59B7B84A2A987B57D
:104CD000B6764B488BA0926E86999D99756E8283AD
:104CE0007F503F52849690866C6A6A948E99B2B0D7
:104CF0007A4E6EA6A97F84867F8C98A173415E81CF
:104D0000797A6B64503E5F739CA59F91776884931A
:104D100099826B728DA38784827C86938F91778C26
:104D20009B9A85785B485B486E7799AAA4847C83BC
:104D300081A3BFAD85644F7068534F59729495A09D
:104D4000A2A4955E4F67757C7A84978E8895A0871C
:104D50007E5D636E828B93A4896B4E6070939085A9
:104D60007B84918E9B91817275756C778A8F8A8016
:104D700080827A87A19E917F6B65635F6C6571808D
:104D80008BABB8B49B77635F61656E7C827876A1EC
:104D90009E908181816A7E9396888D6F6569657327
:104DA000868D7F97808891788673747A747D8C9BCA
:104DB0008B808369816E737F7C7B7689889A7E86FF
:104DC0007776878D9C8C968D88776A746D816781E4
:104DD0008584918287727F616E5B6375818276A420
:104DE000867E7D81827D81939392A38A8A7C83666D
:104DF0006A69677F6C877A8E847C7A696C74786B59
:104E000083837E808B9D8B8A858687949B80897E19
:104E1000836F8C978C79647368786E6668736F881B
:104E200083787B85848E92838C80987D9082838C1E
:104E300092896E7D6D8A747C7E7A697079718D88B5
:104E40008574726B7A74707D858C8F8388958D895B
:104E500083867A7B8287798388898E857F746F7950
:104E600078818D8E94939B7B766E6D695F707B816C
:104E70007A7E777E838079817E80808089848F8628
:104E80007F7B797E8694948E837F8B8982817B78E9
:104E90007C8889776F7578676668666F6D6F727DDD
:104EA000858683858383897C85909594A2A48D8E45
:104EB000948D7E84838286878A7D776E675C565C5C
:104EC000596972738082877F7E827F82888A889206
:104ED00092A1928E858483768B83898B8984867D4B
:104EE0007D7C716F6D7A737272797D7F7B807B7E42
:104EF000797C907E88848E918E817A7E787F7B907B
:104F0000858E8882887D837E837B7E7D7F767E7D95
:104F10006A6C6D737075788989817C7D7C77787314
:104F2000767B8E8F8C8D93918C888174797B808435
:104F30008793888B7B7C83786E686D757E80897C97
:104F40007F7B6B6A696F6F80898C96989091958D45
:104F50008E8B928E888A8A8F867A70736E6E696E57
:104F6000707376726F70756C6E667D7F8080878FD0
:104F700091978E948A918C9296929990807C747479
:104F8000746E788283878A8A8878766C6866697599
:104F90007C7A7D7D7F797B7871777D8884918B9B0E
:104FA000988E8E8D8E81837E8A898C8E8A868A8861
:104FB0007C706F74726F707875776D6963646A6600
:104FC000706F7D8A8B8C9194908A8D948F94969734
:104FD0009994918E877C76787F82817F7872716DCB
:104FE0006961646D6C6D6E7A7A766F6F72788385A5
:104FF0009196A0A7A8A19C988D877E80817F7D7FB8
:1050000085837A756C666B6E787C8182817A78761E
:10501000706D6770747F8291979998928F868B8458
:1050200083868683847E7D81807D767F81807C847B
:105030008B8F89807A706D636161696A7073747F28
:1050400083898491989E9C9B9E989687827774739F
:10505000777F82858884807E7B77717574747273A4
:105060007677726A676469708089979EA2A29DA212
:105070009692817E84837F7D7F83837D7B73706F37
:1050800073778183857F7875706B5D5C5D62636E1D
:1050900078878C8C94939B9A9B9A9E9E9E999189DB
:1050A000807F7474757875777C8183827D736F6778
:1050B00068666E6F72736F727479787A8592979C56
:1050C000A1A5A49D948C89837C7A81868A8A837F1A
:1050D00082827B797D807E797577746C6259544FBA
:1050E000515865757F8A919CA1A5A2989995938E38
:1050F0008D8D8D8B83807C7A7574787D8589858292
:105100007E796E65615F615D6069767D8280818791
:105110008C8E939C9B9F9A9995908778797D8281BC
:105120007E83888A86817E77746E7071726E666304
:10513000616766676C778089949CA5A7A29B958D13
:105140008B827E7E7E83807F7E7B7B7673787C7D88
:105150007B7D80817D726B676460616C7381868DFD
:10516000989E9F969590918B8A8A8C9087837D7A62
:105170007976747A8187898B8C8984786D6A696382
:10518000605E67696F70717478848B99A0A7A5A021
:105190009E9B988D827A7C7C7D808082827E7A7ACA
:1051A0007C77717171747169656562605F65727A2F
:1051B0007D8897A3AAA7A099948E8684847E8080F8
:1051C00084888982797B7C7E7D808082827C746900
:1051D0005E5651565C666F77828B999A9B9A9C9E1D
:1051E00099989699968F837974737272797D868770
:1051F000888C8C877E7573716C686A6C6D6F6C6C53
:105200006E7575818B939B999996968F88807E7B1E
:1052100078787A8588898982818282808081807C81
:105220007875736C6056575F636971808F9FA3A117
:105230009C9691888D8C8D8985848889827B7679EE
:10524000777B80878888847B746C615B5D61686E26
:10525000767A86898E90939B979592979698918669
:105260007C75726F76767C7F807E848A847F7A7A82
:1052700079756B68696F706E6C6A6E757C879398D0
:10528000A0A0A4A79F968D89827D75777D8183825A
:105290007F75726F73757A7B7B7C7D807B716968AB
:1052A000696A6C767F8994999A9791898B888A8BA1
:1052B0008E8A828986817B7B7A79757A898C8D89C1
:1052C0008378746C626161605E64656E79797F8EEB
:1052D0009999999894989E9795928178797A8088EF
:1052E00086868C92938C83786F665856565962697D
:1052F000727C817F83868C8D939A9894908E818224
:105300007E797577757785899A9A958B8B887F7B5F
:10531000726C636261626265717C81848E949A961C
:10532000918886888076767D8085797D8C8A7D7C63
:1053300081919C958E8F968B816F5C4F4E4B525C0A
:10534000687A8694A0A89E9788867A7B8075747800
:1053500087858E837B858482828B8E989C9D9C9B87
:105360008A7D725E5858565F6B70797C7B7A7F7845
:105370007776777B8A9D9691909B8F8C857A8483B4
:105380007D7C888992948F8F9483746E5A58534A87
:105390004D5E6977858E959C979691877C7A8581FD
:1053A0007E7B858D92938F8F89827A758287898C97
:1053B0008C9593827163535351565F6B798B97939E
:1053C0009088827878747D8E95968F938C8C837577
:1053D000777A77738493A4A29E9D9F90796A5651A1
:1053E0004D4F54606976878D92938A837F7F7C7955
:1053F0007E7F82838A888A8E8B8D918E7F7E818C40
:10540000939392949187846F5F5A5854585C657453
:105410007E81878684857F7E7E8D93908B92969702
:10542000938287898075757C919D999E9D957B69F6
:10543000594A4744495B71808D999F9F95897F7830
:1054400078757C888B88858A898B857E7B7A767156
:10545000787C8693979A9A8C807C695D5B56555EC2
:105460006672848586878B8F8B86858B94928981E3
:1054700083847F8882848A83797E8890999A9B9D91
:10548000917C7362544F4A4C5A6B798C9493908BF5
:10549000837E787575839297999297999A90838372
:1054A0007974707887949B989D9A8C7E68524A494B
:1054B000444952607684898D8D90948D8B8A8D9726
:1054C0009188868C8A8B8B89918B807F858B8E903F
:1054D0008B8F8B797066574F4E505D6C737D8B91BF
:1054E000928E888783817C7E8C918C8A918F8E8B23
:1054F000807F786C676D7D8F9EA6A8AA9E9080673E
:105500005147474B545E6B798183878A89817B7EC3
:10551000848B8C8581868D8F8A8C8E8E89807F8608
:105520008F8E9395918B7C756B5D53565F666D7214
:10553000798083828081818080828E98958A878E0F
:105540009492888388877A767E8B989E9FA19F8D80
:105550007E6B524843424A5968798A939A9A969147
:1055600088837C848B87827F858B908B8A8B8379E1
:1055700076797E87888C9190857C74655E5B5D63AF
:10558000686B717F858584838A8989858C9A9487E5
:10559000808481847F747E7E76747E89989C979CBB
:1055A0009D9282745F57535053575D6A7D858B8FF0
:1055B0008C8D89837E8087807F8793969B9F94982C
:1055C0008D7D767A82848E8F9391867F756757530F
:1055D000545B5E5F68767D8187878A8E908D989A0E
:1055E000928B8988888B7F7D83817C7E87939D9D2C
:1055F0009D9A9384776755524F51565B68767E7FAC
:10560000878C8C8C8A888F978E8587898A8D8F8AE4
:105610008F8A7B767A7E7B81828C9392908A80734C
:105620006D635F5D5B61676E747C7E8189898E943A
:105630008D8788857F83827C8382797C83868F9B1C
:105640009C9C9B948B8372615B595A595D63707506
:10565000797E80818180858D8D898B8D8C95958FCC
:105660008E928A84817C80858681848684837C78FE
:1056700077736B6763626360616B788188919CA5C7
:10568000A69E98958E8886858588857F7D7F7F817B
:105690007F7F83827F7C7C76726E6C6C6D7072769D
:1056A000787A7E7F7D7F80807F83898C8D8F9598AF
:1056B00099969189837A72717173737678818888EB
:1056C0008480817F7D77777773706F72727476795B
:1056D000808384827E7D7B7C797A8186898A92959B
:1056E000999793928F8D8683807E7A767272747288
:1056F000706D707474707072737475777A7D818751
:105700008E94979995918B87817C7D7E8181868A05
:105710008C8B86837E7C76727271717273767D81DA
:1057200082818284827E7B7B7C7D7E80848787866B
:10573000888D8E8F8B8786827F777576797A7E8645
:105740008A8B8784817F7C767575767A7A79797B86
:105750007C7A7C8286868582817E7A7A7A7D7E8357
:10576000899092918D86847F7C736F717477777D39
:105770008082828282807B74706F6F7275797E8581
:1057800089888B8B8E8C8C8B8B8A83807D7C7B7BBA
:105790007B7D7E7E7E7A7978756F6B6E73777A7F8C
:1057A000878C8E8D8D8E8E8C878481818381808184
:1057B0008381807F817F7B7A7A7B77757474767939
:1057C0007D82878A8D8A8886817A706D72767C81E7
:1057D000888F908F8D8E8B88817F7D7B7C787A7A85
:1057E0007F83818282837F7E7D7C7A7675767A7BE9
:1057F0007C7D7F828485858687837C77787B7C7DB2
:10580000828C9092908E8A85827E7D797A77757669
:10581000797B7876787C7B7B7C7D7B767070727808
:105820007D82888D9391908E8D87807B7A7F7D7D20
:105830007D83898784817F7A7774747271737479B8
:105840007E8280808285848284888A86827F7F802F
:10585000807E83858A8A8886827F7875727476795D
:105860007C828B8D8D8A898886837F7A74716F6D37
:1058700072787B7B7C8384858587898A8782838411
:1058800085818284888B898481827B746E6E71723B
:10589000757B84888783807E7B797C7D7F7E7F7F1C
:1058A00084898784838A8D8D898685817B757372CF
:1058B0007475787C7F8281808083827C7673737339
:1058C000757A838C8F908F8D8E8A88837F7E7B798B
:1058D000797E7C7975787C7A78777D807F7B787724
:1058E0007B7C7E83878B8C898688868077747576AF
:1058F000767A81878A8987848683817F7C7B797A9F
:10590000787E807E7C7D828385828486847F7671AA
:10591000707174787E85898785898A88807C7D7F8F
:105920008184898D92908E8A89847E7975736F6B5C
:10593000696E757676777A7C7E7E808487888682AB
:10594000817F818384878A8E8D8E8C877F7572702C
:105950007172787C818687837F7F7C7E7C797C7E78
:105960007871787E7D7A7E898C8781878D8C847A28
:105970007B7C7C7D7D818285838486858077747342
:105980007272757A81888D8E8B8683807C7A7E8018
:105990007C7A8086827F7D80827E7C848A88837CFC
:1059A0007C7A74787A838583858282837774767033
:1059B0006D6D77797E7F868B9294939287807A82C1
:1059C000797976818780818588847F7A8683897DCD
:1059D0007A74716C6E6E708283848089837D71703D
:1059E0006D7A7E7C828F9D95999795989E9080790F
:1059F00077737477807A7D7F80737A7C6E7D77830E
:105A00007A8276707B72746D7A838C8F908D7D7CB8
:105A10006E656C727A848D8A8B8E87827D747F81AD
:105A200083817A7F7F8680828C90988F8E958B87FA
:105A300082726E797B7D777C7A787B797D707375E5
:105A4000797878797B7D8087879796938C91898305
:105A50007C6A74777B7C787173777A7574757B7CDC
:105A60007E847C7C7879818A919399979A9F948F90
:105A7000857A6F6E6F71817E7E8080827D766B6BA2
:105A80006D7173787D84898789888B848E949499CD
:105A90009293817978767B787D7E7E7E837F6E653A
:105AA0006A6A666A676E767C85828789919898961D
:105AB000908A807A787A7D7C8186868885807D7AD6
:105AC0007E807F7B76797273777677798090948DFC
:105AD000867E796E6A6B7781888C90938D887F71D2
